:020000040800F2
:10000000F80E0020D5000008212100085D2000081E
:1000100000000000000000000000000000000000E0
:10002000000000000000000000000000A1290008FE
:100030000000000000000000E5240008A3290008DB
:10004000E7000008E7000008E7000008E7000008F4
:10005000E7000008E7000008E7000008EF010008DB
:10006000E7000008E7000008B1010008C10100082E
:10007000E7000008E7000008E7000008E7000008C4
:10008000E7000008E7000008E7000008E7000008B4
:10009000E7000008E7000008E7000008E7000008A4
:1000A000E7000008E7000008E7000008E700000894
:1000B000E7000008E7000008E7000008A535000891
:1000C0000348854600F03CF800480047ED3500083D
:1000D000F80E00200448804704480047FEE7FEE78A
:1000E000FEE7FEE7FEE7FEE72D2A0008C100000854
:1000F00030B50B46014600202022012409E00D46C0
:10010000D5409D4205D31D469540491B2546954047
:1001100040191546521E002DF1DC30BD03460B433D
:100120009B0703D009E008C9121F08C0042AFAD2AD
:1001300003E00B780370401C491C521EF9D2704733
:10014000064C0125064E05E0E36807CC2B430C3C2A
:1001500098471034B442F7D3FFF7B6FF20370008B2
:10016000403700080020704703480021018041808B
:100170008180C180084670473800002010B50948CA
:10018000094C8169208882018018084A8018402221
:10019000FFF7C4FF2078401C8007800F20800020DC
:1001A00010BD00005C060020380000205402002032
:1001B00010B5024800F048F810BD0000DC01002036
:1001C00010B5024800F040F810BD000018020020F1
:1001D00010B5046863604368102B036803D099600E
:1001E0000068C26010BD9A600068C16010BD10B5A3
:1001F000102000F0D9F910BDFEE7F8B504460068FC
:10020000016849084900016000F08CFA0027254682
:10021000064620350EE000F085FA811B7D20C000E7
:10022000814207D9A06B20210843A0630320687096
:100230002F70F8BD20680068C007ECD101206870FD
:100240002F700020F8BD0000F8B504469E480168F4
:100250009D4A9D4E9C4F0832206813041C3630374F
:10026000904201D108221EE0B04201D180221AE062
:10027000B84202D10122D20215E0934A44329042A0
:1002800002D10122D2030EE08F4A5832904201D1AE
:100290001A4608E08C4A6C32904202D10122D20503
:1002A00001E00122D20625461140203500293CD02C
:1002B0000168C943090738D40168082291430160E5
:1002C000814920680831884201D108201EE0B042EF
:1002D00001D180201AE0B84202D10120C00215E00D
:1002E00079494431884202D10120C0030EE07649A9
:1002F0005831884201D1184608E073496C31884270
:1003000002D10120C00501E00120C0066E4948600D
:10031000A06B01210843A0630420687000202870AE
:10032000216B002901D02046884767480168664A4A
:10033000206808321315904201D104221EE0B04219
:1003400001D140221AE0B84201D11A4616E05E4AB5
:100350004432904202D1012292030FE05A4A5832AD
:10036000904202D10122920408E0574A6C32904236
:1003700002D10122920501E001229206114239D0F8
:100380000168C943490735D40168890603D4026866
:1003900004218A4302604C4920680831884201D117
:1003A00004201EE0B04201D140201AE0B84201D141
:1003B000184616E044494431884202D101208003A6
:1003C0000FE041495831884202D10120800408E001
:1003D0003D496C31884202D10120800501E00120B5
:1003E00080063949486011206870E16A002901D00F
:1003F0002046884734480168334A2068083253153C
:10040000904201D102221EE0B04201D120221AE026
:10041000B84201D11A4616E02B4A4432904202D12A
:10042000012252030FE0284A5832904202D10122A1
:10043000520408E0244A6C32904202D10122520553
:1004400001E00122520611423DD00168C9438907EB
:1004500039D40168890603D40168022291430160FE
:10046000194920680831884201D102201EE0B042BB
:1004700001D120201AE0B84201D1184616E01249F5
:100480004431884202D1012040030FE00E49583127
:10049000884202D10120400408E00B496C318842B7
:1004A00002D10120400501E00120400606494860D4
:1004B000A06BA0630120687000202870A16A002949
:1004C00001D020468847F8BD00000240F0B5002862
:1004D00006D0014620314A780024002A02D002E0EA
:1004E0000120F0BD0C7002224A7005682B680B4A8F
:1004F00086681340426807693243C6683E43324308
:100500004669324386693243C66932431A432A60D8
:100510008463012048700020F0BD00000FC0FFFF81
:10052000F8B5044620300578012D1ED00125057050
:100530000226467020680768AF4307602046FFF731
:1005400047FE206801683143016020680168042289
:10055000114301602068016808221143016020688E
:100560000168294301600020F8BD0220F8BD0000A9
:1005700010B5102810D1094801F03AFA0849412273
:100580000878401C8007800F0880810140180549C9
:100590004118024801F042FB10BD00001401002088
:1005A0003C0000205803002010B504494A6902426B
:1005B00002D04861FFF7DCFF10BD000000040140DD
:1005C000F8B5002393E0224601249C40A446224033
:1005D0007ED04C68022C01D0122C0CD1DC08A40077
:1005E00027183C6A5D07ED0E0F26AE40B4430E6936
:1005F000AE4026433E6205685E000324B4400F7996
:10060000A543BF07BF0FB7402F4307604D68012DBB
:1006100005D0022D03D0112D01D0122D0ED18568E9
:10062000CF68A543B7402F43876047686546AF430F
:100630000D79ED06ED0F9D403D434560C568A5432E
:100640008C68B4402C43C4604C68E4004ED52B4CFD
:10065000A56901263543A561A4699D08344000942D
:10066000274CAD002F19BC689D072E0F0F25B540F4
:10067000AC430925ED06A84201D1002514E0214D27
:10068000A84201D101250FE01F4DA84201D102254A
:100690000AE01E4DA84201D1032505E01C4DA842E9
:1006A00001D1042500E00525B5402543BD60194C66
:1006B00025684E689543F60300D5154325606568A7
:1006C0004E689543B60300D515436560A56800E004
:1006D0000CE04E689543F60200D51543A560E56829
:1006E0004E689543B60200D51543E5605B1C0A6869
:1006F0001446DA4000D066E7F8BD00000010024062
:10070000000001400004004800080048000C0048B8
:100710000010004800040140002A01D081617047A8
:100720008162704701480068704700000C0100209A
:1007300002480168491C0160704700000C0100205C
:1007400010B506480168102211430160002000F036
:1007500007F800F017F8002010BD0000002002404C
:1007600010B5044600F00EFF7D21C900FFF7C0FC64
:1007700001F058FC00222146501E00F029F800200C
:1007800010BD000008B50C48816901221143816148
:1007900080691040002200901146501F00F018F8A8
:1007A00000221146901E00F013F800221146501E40
:1007B00000F00EF808BD000000100240C106C90E8E
:1007C00001208840014908607047000000E100E016
:1007D00010B501F0A7FC10BD10B50C0606D54906F2
:1007E000490E1C2461430818283004E01C2461438E
:1007F0000818FF30093099B2002A06D0012282720F
:10080000C180190C0181002010BD002282728180FC
:10081000F9E71C224A43121810B5FF30FF300230AE
:10082000926BC06902F0B6FB10BD1C224A4312183D
:1008300010B5FF30FF32FF30013202309269C069DB
:1008400002F003FC10BD0000F0B54A06520E13463C
:100850001C256A43CC091218002C01D0283201E073
:10086000FF32093204461370C909FF345170E13474
:10087000217A01293DD001212172957A494B002D21
:100880004949557837D0002D05681678AC465BD0BD
:10089000B600AD5B6F0404D5444F0D403D43674641
:1008A000BD5305681678AC46B600AD5B6F0605D53E
:1008B0003C4F0D4040373D436746BD5315780668B1
:1008C000AF00F55B0D4039490D43F553364F1178B4
:1008D00030373D40066889001D4375521178334A10
:1008E00000688900F13A15401D43455200202072EE
:1008F000F0BD0220F0BD002D05681678AC4610D082
:10090000B600AD5B6F0605D50D40264940310D435D
:1009100061468D5305681078234A8100685A303249
:100920000EE0B600AD5B6F0404D50D401F490D43CA
:1009300061468D53056810781C4A8100685AF13A67
:10094000104018436852D1E7B600AD5B6F0404D580
:10095000164F0D403D436746BD5305681678AC46BB
:10096000B600AD5B6F0605D50E4F0D4040373D43D9
:100970006746BD5315780768AE00BD5B0D40094959
:1009800040310D43BD53094F1678F13F3D4001689A
:10099000B6001D438D531178034A89000068303238
:1009A000A1E70000808000008F8F000080C0000061
:1009B000F0B54B06CA095B0E002A04D01C225A432C
:1009C0001218283204E01C224A431218FF3209325E
:1009D0000024947013700346C909FF335170E1334A
:1009E000197A01291AD00121197251781A4C00295B
:1009F0001178066814D08D00715B4F0603D5214035
:100A0000164C21437153117800688A00124C815AA8
:100A10003034214010246140202414E00220F0BD35
:100A20008D00715B4F0403D521400D4C2143715360
:100A3000117800688A000A4C815AF13C2140012457
:100A40002403614064006140044C403C21438152D6
:100A500000201872F0BD00008F8F0000C0800000E1
:100A600080C00000F0B54D066D0E2E461C24654377
:100A7000CF092C18002F01D0283401E0FF340934AD
:100A80002670C90961700146FF31E260E131E3700F
:100A90008C46097A01290DD0012261460A72E2785A
:100AA0009349002A08D0012A20D0022A0DD0032A17
:100AB00025D111E00220F0BD237802689B00D55AB1
:100AC0000D40FF35FF35023504E0237802689B00B6
:100AD000D55A0D40D55212E02278036892009D5AF3
:100AE0000D40032149026918995208E023780268F1
:100AF0009B00D55A0D40012189026918D1522678F0
:100B00000768B5007B5B7B497B4A0B40134333434B
:100B10007B53A57A002D53D02578784E0B4007687B
:100B2000AD0033437B53E38850265D0803686D00B6
:100B3000F65AF6182378DF0001239B02FB18F552C2
:100B4000238950265D0803686D00F65AF61823784D
:100B5000DF005311FB18F55263780768002B2378E8
:100B600075D09D007B5B5E0403D5654E0B4033431F
:100B70007B53237807689D007B5B5E0604D55E4E41
:100B80000B40403633437B53237805689E00AB5BB4
:100B90000B405B490B43AB53564E21783036334004
:100BA0000568890013436B522178554C0068890011
:100BB000F13C234013434352002061460872F0BDCC
:100BC0006378002BA3881FD05D0803685026F65A6F
:100BD0006D00F6182378DF0001239B02FB18F55205
:100BE000237807689D007B5B5E0604D50B40424975
:100BF00040310B437B53016820783E4C8300C85A38
:100C000030342040202440E05D0803685026F65A26
:100C10006D00F6182378DF003A4BFB18F552036895
:100C20005025ED5A374EEB182578B61CED00AD195E
:100C30005E19E3683E2B0BD9DD022D0CDB0601D1DA
:100C40006D1EADB2AB020125ED032B4307E020E0A2
:100C5000DD032D0CDB0701D06D1CADB2AB02338080
:100C6000237807689D007B5B5E0403D50B40244915
:100C70000B437B5301682078214C8300C85AF13C18
:100C80002040012424036040640060401043C852A7
:100C900092E79D007B5B5E0403D5194E0B40334306
:100CA0007B53237807689D007B5B5E0604D5124E5C
:100CB0000B40403633437B53237805689E00AB5B83
:100CC0000B400D4940310B43AB530D4E2178F13EA3
:100CD000334001263603734076007340056889006F
:100CE00013436B522178034C89000068303460E76D
:100CF0008F8900008F8F00008080000080810000BD
:100D000080C0000004040000F0B54906490E1C2410
:100D10004C432418FF340934636122610022A2612C
:100D200003466270FF332170E133197A012908D03C
:100D3000012119726569E1688D4204D96D1A6561F6
:100D400003E00220F0BD29466261A57A002D05D09E
:100D50006578002D19D0012D37D05AE0056850264E
:100D6000765B76192578EF00324D7D1976193E298C
:100D70003ED9CD022D0CC90637D0A9020125ED03BD
:100D8000294300E0A902318043E005685026765BE4
:100D900076192578EF00274D2D1F7D1976193E29EC
:100DA0000AD9CD022D0CCF0601D16D1EADB2AD0218
:100DB0000127FF033D4306E0CD032D0CCF0701D0F3
:100DC0006D1CADB2AD02358009E005685026765B3A
:100DD00076192578EF00174D2D1F7D197153657811
:100DE000002DBBD0012D0AD013E06D1EADB2C4E7BB
:100DF000CD032D0CC907C5D06D1CADB2C2E7056887
:100E00005026765B76192578EF000A4D2D1F7D1947
:100E10007153217800688C00015B074D2940012542
:100E20002D0369406D006940044D294301531A7236
:100E30000020F0BD060400008FBF0000808000008D
:100E4000F0B50246FF32E132137A012B0BD00124B8
:100E50004F06CB097F0E1472002B06D01C237B4358
:100E60001B18283306E00220F0BD1C234B431B183F
:100E7000FF3309339C701F70CE095E700124240378
:100E80001025114B002F0BD04906C90D002E10D094
:100E900004680E4E605A304068401843605210E0BB
:100EA00001680B4E08883040604068401843088055
:100EB00007E00568064E685A303E304060401843EF
:100EC000685200201072F0BD80800000BF8F0000CB
:100ED000BFBF0000F0B506464806400E1C21414346
:100EE0008D19EB630021AA63296401212835374657
:100EF0006970FF372870E137387A012806D03972D7
:100F0000EC686869A04203D9001B03E00220F0BD31
:100F1000044600206861A87A00280CD0297830683F
:100F20008A00825C53064A4A6B7839D5002B12D06E
:100F3000012B2CD032E0A3B2AA882969306801F0D5
:100F4000BEFA30685021095A09182878C200414871
:100F500010180C526AE050231B5AC90018183D4B58
:100F60001B1DC91841183E2C08D9E002000CE306ED
:100F700001D1401E80B28002104306E0E003000C65
:100F8000E20701D0401C80B28002088006E05022B7
:100F9000125A1018CA002F49511844522A8927E0C2
:100FA000002B02D0012B1BD021E050231B5A181814
:100FB000CB002849591841183E2C08D9E002000CF2
:100FC000E30601D1401E80B28002104306E0E00338
:100FD000000CE20701D0401C80B28002088006E0CD
:100FE0005022125A1018CA001A4951184452EA885D
:100FF000A3B22969306801F062FA6878164A0028BD
:1010000002D001280AD011E0297830688900435ABB
:1010100013400F4AC0321343435207E02878316827
:1010200080000B5A13400D4A13430B522878316845
:101030008200094B885A303318401023584020232F
:101040005840034B80331843885200203872F0BD5B
:1010500000800000020400008F8F000080C00000AC
:1010600070B50446006840308088C00B02D020462E
:1010700001F07AF820684030818849050AD58188D6
:10108000334A11408180204600F0DAF800212046E2
:1010900000F000F9206840308188490403D5818838
:1010A0002C4A11408180206840308188890403D512
:1010B0008188294A11408180206840308188042538
:1010C000C904002910DA0188A9430180BD202168E4
:1010D000000240310880204600F0BEF82068403011
:1010E00081881E4A1140818020684030818809052E
:1010F00017D581881A4A11408180206840300188C4
:101100000822114301802068403001882943018072
:10111000206840308088C043C00402D5204600F0DB
:10112000E3F8206840308188890506D581880D4A1A
:1011300011408180204600F0A5F820684030818869
:10114000C90503D58188084A1140818070BD00001F
:10115000FFFB0000FFBF0000FFDF0000FFEF00000B
:10116000FFF70000FFFD0000FFFE0000F8B50027BC
:101170000446002807D02646FF36E136707A00255F
:10118000002802D005E00120F8BD3572204600F0AD
:101190003BF80320707201210BE01C2078430219F8
:1011A0001046203041720772C572556395637F1CEB
:1011B000D5636068B842F0D800200BE01C2242439F
:1011C0001219FF32013255721072D5725561956154
:1011D000401CD56162688242F0D8206840300180AE
:1011E000206840300580206840308580206840308D
:1011F0000582BF2022680002403210802034257111
:1012000071720020F8BD000008B500680A498842E4
:1012100010D10A48C2690121C9050A43C261C069E7
:1012200000220840009011461F20FFF7D1FA1F202E
:10123000FFF7C4FA08BD0000005C00400010024047
:1012400010B5C41DFF34FA340121E06901F0D3FF69
:10125000E06901F098FF10BD10B5044680690028D0
:1012600006D00748016906229143016101F09FFB06
:10127000FF34FF340234E06901F0A8FF10BD000024
:1012800000ED00E0FF3010B5FF300230C06901F022
:10129000A3FF10BD0246FF32E132137A012B08D0C2
:1012A00001231372002906D0203001710020107232
:1012B0007047022070470068802140308181F5E747
:1012C00010B5872189000A580146FF31ED311046DB
:1012D00001F09DFF10BD00684030018B0122D20358
:1012E000114301830020704710B50446FF30FF30E2
:1012F0000230C06901F0CCFFA069002804D0034887
:10130000016906221143016110BD000000ED00E0FB
:10131000F8B504460068434DC00352D5E86900267D
:10132000C00007D4E96928040143E961E969014083
:10133000012600913C480168C90510D40168821556
:1013400011430160FFF7EEF9074604E0FFF7EAF901
:10135000C01B642824D834480068C005F6D5286A24
:1013600003273F02384020D06168394081421CD0B9
:10137000286A2A6AB843012109040A432A622A6AB0
:101380008A432A622862C0070FD0FFF7CBF900908A
:1013900008E0FFF7C7F90099411A2448814201D9B2
:1013A0000320F8BD286A8007F3D5286A6168B8432E
:1013B00008432862002E04D0E86901210907884308
:1013C000E8612078C00705D0286BA16880088000FC
:1013D000084328632078800706D5286B0321090479
:1013E0008843E168084328632078800605D5286B88
:1013F000102188432169084328632068800305D5AC
:10140000286B80218843A169084328632088400510
:1014100005D5286B40218843616908432863002073
:10142000F8BD00000010024000700040881300006A
:10143000F8B505464E480E460068C007C00FB042DA
:101440000AD24B48016849084900314301600068ED
:10145000C007C00FB04270D12878464C800705D530
:101460006068F0218843A968084360602878C00755
:1014700053D06868012817D0022818D0032819D043
:1014800021688907002958DA6168890889000143C1
:101490006160FFF747F969680746012913D00229FF
:1014A0001DD0032927D034E021688903EAE72168A9
:1014B0008901E7E7616BC903E4E7FFF733F9C11B73
:1014C0002D48814223D860680007800F0128F4D19D
:1014D00023E0FFF727F9C11B2748814217D860682E
:1014E0000007800F0228F4D117E0FFF71BF9C11B9A
:1014F000214881420BD860680007800F0328F4D18F
:101500000BE0FFF70FF9C11B1B48814201D90320F3
:10151000F8BD60680007800FF3D115480168C9075E
:10152000C90FB1420BD90168490849003143016034
:101530000068C007C00FB04201D00120F8BD287874
:10154000400706D56068072109028843E968084317
:10155000606000F01DF86168084A0906090F515CD7
:10156000C840074908600020FFF7FAF80020F8BDDE
:1015700000200240001002408813000010370008CD
:101580001001002001480068704700001001002091
:1015900030B516A30FCB89B06C460FC417A30FCB81
:1015A0000FC41A494A680C20144604401848042CF9
:1015B00005D0184B082C04D00C2C00D1184609B0CB
:1015C00030BD9402240F6D462C5DC96A04AD090735
:1015D000090FD203695C920F022A02D0032A00D1BC
:1015E0001846FEF785FD6043E9E7000002030405A5
:1015F000060708090A0B0C0D0E0F10100102030458
:1016000005060708090A0B0C0D0E0F10001002400A
:1016100000127A00006CDC02FEB504460078F04E41
:10162000F04DC00748D068680007800F01281FD020
:1016300068680007800F022804D16868C003800F23
:10164000022815D06168012919D0012080040029E1
:1016500001D0052917D02968B14329602968814341
:101660002960606800281BD0FFF75CF8074613E08C
:101670002868800320D56068002876D01CE02868A0
:1016800030432860EDE7296801432960F7E7FFF759
:1016900049F8C01B642869D828688003F7D50BE097
:1016A000FFF740F8074604E0FFF73CF8C01B64284A
:1016B000F1D828688003F7D4207880073ED5686881
:1016C0000007800F14D068680007800F022804D13B
:1016D0006868C003800F01280AD0E06800282868E5
:1016E0001DD0012108432860FFF71CF807460BE0D6
:1016F000286880070BD5E068012836D107E0FFF79E
:1017000011F8C01B0228C6D828688007F7D52868BA
:10171000F82188432169C900084328600EE0400889
:1017200040002860FEF7FEFF074604E0FEF7FAFFE0
:10173000C01B0228AFD828688007F7D4207800079C
:1017400024D5E0690028686A11D001210843686245
:10175000FEF7E8FF074604E0FEF7E4FFC01B02289F
:1017600099D8686A8007F7D510E036E1D1E04008E3
:1017700040006862FEF7D6FF074604E0FEF7D2FF9E
:10178000C01B022887D8686A8007F7D4207804270E
:101790004007002861DA00200190E869C00008D401
:1017A000E969B8060143E961E96901400120009156
:1017B00001908D480168C90511D401688215114353
:1017C0000160FEF7AFFF009005E0FEF7ABFF009968
:1017D000401A642897D884480068C005F5D5A068E9
:1017E00001280AD0002801D0052811D0286A400815
:1017F00040002862286AB84302E0286A01210843B1
:101800002862A068002812D0FEF78CFF00900AE042
:10181000286A38432862F0E7FEF784FF0099411AEE
:101820007248814275D8286A8007F5D50DE0FEF729
:1018300079FF009006E0FEF775FF0099411A6B48AA
:10184000814266D8286A8007F5D40198002804D020
:10185000E969012000078143E9612078C00635D598
:10186000606901280CD0401D686B24D03843686340
:10187000686B400840006863FEF754FF074622E0AB
:10188000686B38436863686B012108436863FEF73F
:1018900049FF074604E0FEF745FFC01B022838D881
:1018A000686B8007F7D5686BF8218843A169C90088
:1018B000084368630AE0B8436863F4E7FEF732FF61
:1018C000C01B022825D8686B8007F7D420788006D3
:1018D00037D568680007800F032813D068680007B1
:1018E000800F022804D16868C003800F032809D044
:1018F000206A0028686B16D030436863FEF712FF39
:1019000006460CE0686BC0031BD5206A012864D131
:1019100017E05BE0FEF706FF801B022856D8686BD5
:10192000C003F7D50DE0B0436863FEF7FBFE064643
:1019300004E0FEF7F7FE801B022847D8686BC0035F
:10194000F7D4606A002846D069680907890F022920
:1019500043D0012636060228286805D0B043286007
:10196000FEF7E0FE044633E0B0432860FEF7DAFEFF
:10197000074604E0FEF7D6FEC01B022826D82868DA
:101980008001F7D4E86A216B000900010843E8628E
:10199000A16AE06A084369687B22D2039143084345
:1019A0006860286830432860FEF7BCFE044604E007
:1019B000FEF7B8FE001B022808D828688001F7D57A
:1019C00009E0FEF7AFFE001B022801D90320FEBD8F
:1019D00028688001F5D40020FEBD0120FEBD000076
:1019E0000000010000100240007000408813000059
:1019F00010B50446406D002801D0FEF7FEFBA06D37
:101A0000002801D0FEF7F9FB2068416889088900A9
:101A10004160012040346077002010BD70474030A5
:101A2000407F7047F8B5040006D025464035687FF2
:101A30000026002802D005E00120F8BD2E772046C0
:101A400000F058F802236B77206801684022914328
:101A500001600722E0681202904201D9002101E0F2
:101A6000012109030F273F02B84202D0904200D063
:101A7000A662276B002F05D1904201D9236301E0B4
:101A800001202063A26860686369104322691A43D9
:101A900010430123A2695B021A401043E26910431C
:101AA000226A1043A26A104322681060206B022849
:101AB00004D1206802689B001A430260626B606A6E
:101AC000A36910431B0C0427E2683B401A431043F0
:101AD0000843216848602168E06A08612068C1699C
:101AE000034A1140C1612666012068770020F8BDD5
:101AF000FFF70000F0B5064602684248404B00245C
:101B000085140227032187B09A423FD182692A4374
:101B10008261806901972840059010200090012083
:101B2000029003200390092069460494C006FEF742
:101B300047FD09206946C00600F0D6FC0022114688
:101B40000720FEF745FE0720FEF738FEA020009094
:101B50000320039009200197029469460494C0066B
:101B6000FEF72EFD2848294F11C73C60BC60FC6081
:101B70007D6180203C6178602448083FFEF7A6FC28
:101B8000002801D0FEF738FBB76536E0204B9A42BB
:101B900034D1C36912141343C361C0690197104063
:101BA0000590052040031B4F03910090029404947C
:101BB00069463846FEF704FD01200190694600950C
:101BC0003846FEF7FDFC012229463846FEF7A4FD03
:101BD0000D48114F3C3038601020BC6078603C618B
:101BE0007C61FD618020BC61F8603846FEF76EFCC8
:101BF000002801D0FEF700FB77657E6207B0F0BDDC
:101C000000300140001002401C000240DC010020B6
:101C1000003800400004004818020020F8B50546CE
:101C200004464035287F0027012807D00120287767
:101C3000687F0026012803D002276EE00220F8BD4D
:101C4000002935D0002A33D0042068772666216425
:101C5000AA80EA80A663A687E6876068C31FFD3B6B
:101C600002D1A068002825D00121A068C9038842BC
:101C700005D120680168012292039143016001208F
:101C8000A16A4003814208D121680A68244B1A40A6
:101C90000A6021680A6802430A600721E2680902B3
:101CA0008A420ED8A26D012352699B029A4208D142
:101CB000012732E013462E770A46204600F03AF814
:101CC000F8BD22685368834353600120E268000333
:101CD0008A4221684A6801D9824300E002434A608F
:101CE000A16D1048C862A16D0F488862A16D0F48B0
:101CF000086320684168012211434160EB88216834
:101D0000226C0C31A06DFEF70BFC206801684906BF
:101D100003D401684022114301602E773846F8BD94
:101D2000FFDF0000C7250008E5250008A5250008FD
:101D300070477047F8B5054604464035287F0027B0
:101D400001280CD001202877687F01280ED0606818
:101D5000C61FFD3E08D1A068002805D101E0022081
:101D6000F8BD687F042801D0022796E0002930D012
:101D7000002A2ED0002B2CD0687F042801D005200B
:101D8000687700262666A163A387E3872264AB8079
:101D9000EB800120A16A4003814208D121680A68D2
:101DA000474B1A400A6021680A6802430A602168AA
:101DB0004A6803235B039A434A6007230122E168D0
:101DC0001B021203994206D9206841689143416081
:101DD00030E0012761E021684B68012212031343C0
:101DE0004B60616D4A69012189028A420BD1A18F42
:101DF000344AC90721684B6853D013434B60E18FC5
:101E00004908491CE187A16D4A69012189028A427A
:101E100010D121684A6801231B039A434A60E9886C
:101E2000C90721684A6841D002434A60E8884008EF
:101E3000401CE880687F04283DD0A16D2248C8621C
:101E40002248A16D8862A16D21480863206841681D
:101E5000012211434160EB882168226C0C31A06D96
:101E6000FEF75EFB606DC662606D8662616D18484C
:101E70000863E38F2268A16B0C32606DFEF750FBA4
:101E800020680168490603D40168402211430160BB
:101E900020684168022211434160002028773846BB
:101EA000F8BD93434B60E18F4908ABE782434A603A
:101EB000E8884008BDE7A16D0648C8620648C0E74B
:101EC000FFDF000000400000DB25000805270008B8
:101ED000A5250008C7250008E5250008F8B5054632
:101EE00004464035287F0026012806D001202877A7
:101EF000687F012803D002265EE00220F8BD002999
:101F00005ED0002A5CD00320687700202066A163A1
:101F1000A287E2872064A880E8800122D203A1681A
:101F20005010914203D121680A6802430A600121DE
:101F3000A26A49038A4208D122681368244F3B40B1
:101F40001360226813680B431360626D2149D162EC
:101F5000626D21499162626D2049116321684A686E
:101F600082434A600722E1681202914210D8616DF3
:101F700001224969920291420AD1E18FC907216881
:101F80004A681FD002434A60E08F4008401CE08747
:101F9000E38F2268A16B0C32606DFEF7C1FA2068F6
:101FA0000168490603D4016840221143016020689A
:101FB0004168022211434160002028773046F8BD75
:101FC0000126F9E782434A60E08F4008DFE700001E
:101FD000FFDF0000D1250008B1260008A525000874
:101FE00010B500680449884204D1811401220348D5
:101FF000FEF792FB10BD00000038004000040048CE
:10200000704770477047000004220449042808699B
:1020100002D09043086170471043FBE700E000E006
:1020200070470000094910B5401E884201D90120BF
:1020300010BD074C60610321081F00F073F80020F9
:10204000A06107202061002010BD0000FFFFFF00FD
:1020500000E000E010B5FFF7E3FF10BDFEE7000071
:1020600010B50E480C4901600122920282600021E5
:102070004160016141618161072201621202416296
:10208000C260816207220163C2624163FFF7CAFC3A
:10209000002800D0FEE710BD0030014014010020F0
:1020A00010B511480F490160FF2105314160002141
:1020B0000722816012020161C26001224161520265
:1020C0008261016218224162C26181620722C2629A
:1020D000016308214163FFF7A5FC002800D0FEE75B
:1020E00010BD0000003800407801002010B500222B
:1020F0000749084800F023FF0749064801F0EDF8BA
:102100000649044800F03CFD024801F037F910BDD3
:10211000400000205C040020740000202800002003
:10212000704700008307FF22DB0E9A408907090EE3
:10213000994000280BDA0007000F08388308084888
:102140009B001818C36993430B43C361704783080E
:1021500004489B001B181868904308431860704798
:1021600000ED00E000E400E0F0B585B0044600209A
:10217000694688802646203678E19A8917073F0FFE
:1021800026D0B9000291425A9A80998809047DD5D7
:10219000BE490A400299425238461C21484305195B
:1021A000FF350935A87A0028206870D029788A0080
:1021B000825A52046CD55022125ACB00B4491218DC
:1021C0005918515A8905890D00917DD0EA88BDE0E2
:1021D0009A89D20627D40188AE4A2546114001804B
:1021E00020685021095A283508182978CA00A849BA
:1021F0005118405A8005800D2064A16B0818A06317
:1022000000212046FEF705FB30790028B4D068692C
:102210000028B1D13079802108432168403188817C
:102220000020307122E12546FF35028809359A8069
:102230009B881B0519D5098A09182878C20094487B
:10224000001D1018085A294683059B0DAB61AA880A
:10225000E431206800F024F920688C4A018811409C
:1022600001802046FFF72CF800E1694689880904BF
:10227000D8D58649864F0A40028020685021095AE5
:102280003F1D09182878C000C01902E085E03DE034
:102290004FE0085A83059B0DAB6108D0AA882969D5
:1022A000206800F0FDF8A96928694018286100211C
:1022B0002046FEF7BAFA206801464030008A4018EE
:1022C000C119E8683E2800E044E00AD9C202120CB5
:1022D000C00601D1521E92B290020122D2031043D5
:1022E00006E0C203120CC00701D0521C92B2900249
:1022F00008802168684A0888104001221203504073
:1023000052005040654A10430880AFE05021095AFE
:102310000A182978CB005E49091D5918515A8905B8
:10232000890D009121D0AA882969009B00F0B8F896
:102330001BE05022CB00125A55491218091D59189A
:10234000515A8905890D009104D02A892969009B79
:1023500000F0A6F8297820688A004E4B815A803315
:1023600019404E4B403319438152A969009808180F
:10237000A861296900980A182A616B69002B03D0AB
:10238000E9680098814204D929782046FEF74DFA81
:1023900003E029782046FEF7B7FC684680880006EF
:1023A00064D51C204743206802993A4A415A3D1996
:1023B0001140029A28358152A87A0028206811D04D
:1023C00029788A00825C52061ED55022125AC90012
:1023D00012182F480818105A83059B0DAB6124D0A2
:1023E000EA881EE05021095A09182878C2002848B6
:1023F0001018085A83059B0DAB6121D0AA88296962
:10240000206800F05CF81BE05022125AC900121834
:102410001F48001D0818105A83059B0DAB6104D09E
:102420002A892969206800F04AF828782268800003
:10243000184B115A80331940174BF133194311527D
:1024400020685021095A09182878C200104810182D
:10245000085A8005800DA86129690A182A616B69EC
:102460002978002B20460DD0FEF734FD2068014668
:1024700040318A886B469A81120400D57DE600209F
:1024800005B0F0BDFEF7C5F9F0E700008F0F0000C2
:10249000020400000F8F00008FBF0000808000004A
:1024A000101801225B1C92025B088018002B05D0DB
:1024B00002880A80801C891C5B1EF9D170471018A5
:1024C00001225B1C920210B55B088018002B08D01B
:1024D0004A780C78120222430280801C891C5B1E01
:1024E000F6D110BD70470000F8B500230125264F36
:1024F00044E022462C469C4022403ED0234CA66914
:102500002E43A661A469E407E40F9C08A400E41923
:102510000094A4680F26A4469C07240FA646A64054
:102520006446B4430926F606A446B04201D100260B
:1025300014E0174EB04201D101260FE0154EB04213
:1025400001D102260AE0144EB04201D1032605E073
:10255000124EB04201D1042600E005267446A64082
:1025600064462643009CA6600D4E34689443144391
:102570003460B46894431443B4605B1C0A68144626
:10258000DA40B6D1F8BD0000000001400010024062
:102590000004004800080048000C004800100048F3
:1025A0000004014010B5406A01684A689208920030
:1025B0004A60016E10221143016601225D210A5416
:1025C000FFF72CFA10BD10B5406AFFF7B2FB10BD43
:1025D00010B5406AFFF714FD10BD10B5406AFFF753
:1025E00011FD10BD38B5446A00680068800658D4F3
:1025F0000121A06A4903022588422CD101223223FD
:102600001146204600F084F9002802D0206E2843AD
:1026100020660721E06809028842206804D9C06862
:1026200069460880088816E0017B684601800088BA
:10263000206B02280FD1012232231146204600F0E0
:1026400067F9002802D0206E284320662068017BAD
:1026500068460180008820684168890889004160D7
:102660003221204600F0B2F8002803D0206E20214D
:1026700008432066002120464030C1800121417777
:1026800020688168C943C90604D4216E29432166A4
:1026900006498160206E002803D02046FFF7BEF96E
:1026A00038BD2046FFF744FB38BD0000EFFF0000B7
:1026B00038B5446A0068006880061FD42068416805
:1026C0000222914341603221204600F0B6F80028F2
:1026D00001D020202066A068002803D12068C168AE
:1026E000806800900020E08701215D200155206E68
:1026F000002803D02046FFF791F938BD2046FFF7A8
:102700006FFC38BD38B5446A00680068800657D44D
:102710000121A06A4903022588421AD10722032118
:10272000E06812024902904202D1206B012835D0A4
:10273000012232239202204600F098F8002802D0AD
:10274000206E284320662068C06869460880002003
:10275000085E3221204600F070F8002801D02020C9
:102760002066206841688908890041600021E1876E
:1027700020464030C1800121417720688168C943EB
:10278000C90604D4216E294321660F498160206E59
:10279000002815D02046FFF741F938BD0122322329
:1027A0005202204600F062F8002802D0206E284332
:1027B00020662068017B684601800021415EC8E7F1
:1027C0002046FFF71EFC38BDEFFF0000F3B50446BE
:1027D0004068FF2501260535F60381B0A8420AD1DD
:1027E000A068B04202D07111884204D1206801680B
:1027F000402291430160002280212046029B00F08C
:1028000087F82027002811D16068A84213D1A0685A
:10281000B04202D0790188420DD103210022490241
:102820002046029B00F022F8002804D0206E384396
:1028300020660320FEBD0020FEBD70B50E460B468F
:10284000032104460022C90200F010F820250028C8
:1028500007D1334600228021204600F059F8002895
:1028600003D0206E28432066032070BDFEB51D46B0
:1028700017460E460446FDF755FF00903EE0032143
:1028800049028E4205D1002F03D1017B68460171B8
:102890000079681C32D0002D05D0FDF743FF009968
:1028A000401AA8422AD320684168E022914341603F
:1028B0006068C11FFD390CD10121A068C90388429D
:1028C00002D04911884204D1206801684022914316
:1028D00001600120A16A4003814208D121680A6891
:1028E0000A4B1A400A6021680A6802430A60012004
:1028F00040346077002020770320FEBD2068816887
:102900003140B942BBD10020FEBD0000FFDF000016
:10291000F8B51D4616460F460446FDF703FF009026
:1029200034E0681C32D0002D05D0FDF7FBFE009985
:10293000401AA8422AD320684168E02291434160AE
:102940006068C11FFD390CD10121A068C90388420C
:1029500002D04911884204D1206801684022914385
:1029600001600120A16A4003814208D121680A6800
:102970000A4B1A400A6021680A6802430A60012073
:1029800040346077002020770320F8BD20688068FD
:102990003840B042C5D10020F8BD0000FFDF000084
:1029A000704710B5FDF7C4FEFFF754FB10BD30B5FE
:1029B00099B0222000900120039008900225102059
:1029C00009950490C0020A90000100240B900C9419
:1029D0006846FEF721FE002800D0FEE707200D9094
:1029E0000F9401210E9510940DA8FEF721FD0028EB
:1029F00000D0FEE7012040041190179411A8FEF7C3
:102A000087FC002800D0FEE7FEF7BCFD7D21C90051
:102A1000FDF76EFBFFF706FB0420FFF7F5FA002237
:102A20001146501EFDF7D4FE19B030BD12480168A2
:102A30000122114301604168104A11404160016860
:102A40000F4A114001600168012292049143016024
:102A500041683F22120491434160C16A090909019A
:102A6000C162016B074A11400163416B490849008B
:102A70004163002181607047001002400CB8FF08DC
:102A8000FFFFF6FE2CFEFCFFFF30FF3002308069B6
:102A90000021403001740846704770B5C51DFF35F0
:102AA000FA35AC69EA690646D268617820789047C1
:102AB000402322460121304600F05CFB002070BD1F
:102AC00010B50446812100F05CFA0121204600F097
:102AD00058FAFF34FF340234A069002807D0E069B7
:102AE00080688047A06900F057FD0020A0610020A9
:102AF00010BDFF3010B5FF3002308469E16C012950
:102B000007D1C0692278C3686178104698470020D1
:102B1000E064002010BD00002921018000487047BA
:102B2000B00000200A210180004870470001002009
:102B300070B50446002640230322812100F00EFBDD
:102B4000402303220121204600F008FB542000F01E
:102B500025FDE11DFF31FA31886100280ED00546C0
:102B6000002240300274C8694068804740232A46EA
:102B70000121204600F0FEFA304670BD0126FBE739
:102B800002460220002904D0FF32FF320232002028
:102B9000D161704710B51346FF244322FD34D200A3
:102BA000245C1258032C09D14032147C002C05D12E
:102BB000012414740A46812100F072FB002010BD2C
:102BC000F8B5C41DFF34FA34002225460E78A469F6
:102BD000602713463E4026D0202E49D14A78921EC7
:102BE000130000F0E7FC0A11091C1C1C1C1C150D2D
:102BF000061C887820643BE00122214640312EE00B
:102C00004888000A606433E001222146443126E00E
:102C10000122E2648A79214600F050F828E000F0B1
:102C200043F80220F8BD4E78062E04D00A2E19D0A3
:102C30000B2E1DD11AE04C88240A222C02D0212C04
:102C400007D00BE0CA88212A00D92122E9690B6844
:102C500004E0CA88074B212A00D92122194600F036
:102C600049F805E0012221464831F8E78878A06458
:102C70000020F8BDDC00002010B58522920012581B
:102C800052689047002010BD134610B50A46002137
:102C900000F070FA002010BD134610B50A4600215E
:102CA00000F0FEFA002010BD10B50446802100F0AF
:102CB000DDFA0021204600F0D9FA10BD10B5FF233F
:102CC0000324F5331C50C31DF9339A60DA601346B0
:102CD0000A46002100F04EFA002010BD10B5FF2179
:102CE0000522F5310A5000231A46194600F042FA2F
:102CF000002010BD10B5FF230224F5331C50826163
:102D00001346C2610A46002100F0CAFA002010BD35
:102D100010B5FF210422F5310A5000231A46194646
:102D200000F0BEFA002010BD10B50A46024903A00B
:102D300000F0E3F8004810BDF808002043757374F4
:102D40006F6D2048494420436F6E6669670000003C
:102D500012200880004870476000002010B50A4625
:102D6000024903A000F0C9F8004810BDF80800208F
:102D7000437573746F6D2048494420496E746572C1
:102D80006661636500000000042008800048704709
:102D90005C00002010B50A46024903A000F0ADF81F
:102DA000004810BDF80800204B45494C202D205408
:102DB0006F6F6C732042792041524D0010B50A4666
:102DC000024903A000F099F8004810BDF80800205F
:102DD0004D7920434D5349532D444150205769723A
:102DE000656C65737300000010B50A46024903A0C4
:102DF00000F083F8004810BDF80800203030303172
:102E0000413030303030303000000000F8B50D4631
:102E100004464988FF300A0AFF300230130000F0F0
:102E2000C9FB08500509165050454D500069237CD8
:102E3000026817E0217C02264069002905D0C16A9A
:102E4000684688470146467047E0816AF8E7CAB29B
:102E5000130000F0AFFB06040B0F161A1E240069C6
:102E6000237C426869461846904716E00069227C38
:102E7000836802E00069227CC3686946104698476F
:102E80000BE00069227C0369F7E70069227C436953
:102E9000F3E70069227C8369EFE701461DE04069A2
:102EA000C9B2836B6A4620469847F6E7217C002921
:102EB00007D14069416B68468847EEE7217C0029CD
:102EC00004D029462046FFF7EFFEF8BD4069016BAC
:102ED00068468847072201464270684600880028F5
:102EE000F3D0EA88002AF0D0824200D90246684630
:102EF00002802046FFF7FEFEF8BD70B500230028D3
:102F00001CD00446002502E06D1CEDB2641C26783E
:102F1000002EF9D16C00A41C1480CC5403225B1C3D
:102F2000CA5400245B1C06E0CA545B1CDAB28C5401
:102F3000521CD3B2401C0278002AF5D170BD10B5E6
:102F4000002813D0C31DFF33FA335C69002C01D075
:102F500000245C61002900D01961FF210123FD31AB
:102F60000B54027000F0ACF8002010BD022010BD20
:102F7000FF3010B5FF300230006AFDF719FD002068
:102F800010BDFF3010B5FF300230006AFDF75CFC69
:102F9000002010BDFEB50446FF30E51DE130FF35D1
:102FA000FA3513460190002908D068694269002A61
:102FB00049D00198007F032843D044E02646FF36DD
:102FC00081362046716F1430022934D1C26881687D
:102FD0000092914207D9891A81608AB21946204627
:102FE000FFF75AFE13E0406811460746FDF780F8E8
:102FF000002913D10098874210D3B06F87420DD2B9
:10300000002211462046FFF747FE0020B06700234C
:103010001A461946204600F0ADF80CE06869C16810
:10302000002905D00198007F032801D12046884758
:103030002046FFF753FE2878012804D1002028708D
:1030400001E0204690470020FEBD70B50546FF35E3
:10305000E1352B46203316460446002907D058692F
:103060008269002A29D0287F032824D025E0FF2167
:10307000F531E01D0959FD3003291ED18268C16870
:103080008A420BD9511A8160C068814200D301463F
:103090008AB231462046FFF7F7FD0EE05869016914
:1030A000002904D0287F032801D1204688472046E4
:1030B000FFF72EFE01E020469047002070BD000083
:1030C00010B51A49C41DC861FF341949FA341948AA
:1030D00021620860022208208A6048600020C860DF
:1030E0008861C8610A6108620846FEF73FF8002857
:1030F00001D0FDF781F8002218231146206AFDF760
:103100006BFB582300228021206AFDF765FB982382
:1031100000228121206AFDF75FFBD82300220121D4
:10312000206AFDF759FB002010BD0000D8080020E0
:10313000D8060020005C0040FF30CA09FF30490675
:103140000230490E1C23006A59430818002A01D096
:10315000203001E0FF300130807A704710B5FF3039
:103160001C46FF3002301346006A2246FDF77AFC07
:10317000002010BDFF3010B5FF300230006AFDF7AF
:10318000C3FD002010BD70B5002204464023114647
:10319000FFF7E4FF4025FF20113005512B460022A8
:1031A00080212046FFF7DAFFFF200121FD30256254
:1031B0000155E01DFF30FA308169002904D04069D3
:1031C0002179426820469047002070BDFF30E130F1
:1031D000417F01770020704710B5FF21FD31095C68
:1031E000032906D1852189000958C969002900D021
:1031F0008847002010BD017400207047FF3010B5D3
:10320000FF300230006AFEF745F8002010BD70B5AF
:1032100004464120C0002018054600F04AF8214627
:10322000FF3181310122084680304A67C2898A67AE
:10323000007AC106C90E0AD001290DD0022910D08A
:10324000C109C901204600F011F8002070BD2946CF
:10325000204600F098F8F8E72946204600F07FF96C
:10326000F3E72946204600F005F9EEE7FF3010B5F8
:10327000FF300230006AFDF7E3FD002010BDFF3093
:1032800010B5FF300230006AFEF725F8002010BDAF
:10329000FF30E130017F4177042101770020704742
:1032A000FF3010B5FF300230006AFDF713FE00203A
:1032B00010BD0A7802704A784270CB788A781B0277
:1032C000D21842804B790A791B02D21882808A79FF
:1032D000C97909025118C1807047024600200029AF
:1032E00004D0FF32FF320232516170470220704732
:1032F00010B58522920012580224002A04D01268C8
:103300009047002800D10024204610BD70B50E461D
:103310008978194D04462970012904D9314620467F
:10332000FFF7C2FC70BD2046FF30E130027F022A69
:1033300015D0032AF2D1002917D0606888420AD03C
:10334000C1B22046FFF798FC297861602046FFF75C
:10335000CFFF0228E2D02046FFF7DAFC70BD00293B
:10336000F9D0032261600277F0E70222027720465B
:103370006160FFF781FCEEE70A01002010B5FFF75E
:103380007EFF002010BDF8B500220092C61DFF365A
:103390004C781746FA3632460125203A230000F0D1
:1033A00009F90A3C564150410906412B2841FFF7D3
:1033B0002DFD5DE004468888002818D1C8880028C3
:1033C00015D1887817464606107F760E03280ED052
:1033D000BE7731462046FFF711FF2046FFF798FCE5
:1033E000002E02D00220387742E03D7740E02046B0
:1033F00018E0FFF78BFF3BE0CB88012B12D1127F47
:10340000022A02D0032A0DD104E00122014608312C
:10341000876013E00122011D10E0127F022A04D010
:10342000032A02D0FFF740FC22E0C5607168002942
:1034300001D00321C160014602220C31FFF75AFC82
:1034400016E004464888012812D1756009E0044658
:10345000107F022801D00328C9D14888012807D14C
:10346000776070698268204690472046FFF750FCDD
:103470000098F8BDF8B504460D462878E61D4006CC
:10348000FF3600270979800FFA36012809D06A78BB
:1034900030462038002A38D0012A1ED0032A3DD1D8
:1034A00006E0706929468268204690470020F8BDF2
:1034B000007F022817D003282CD16888002806D165
:1034C000002904D0802902D02046FFF7CFFE706982
:1034D000294682682046904713E0007F022802D0E8
:1034E000032817D104E0002918D080291AD115E04B
:1034F0006888002812D1480603D02046FFF738FD1F
:10350000E5E72046FFF704FC08E0007F022807D02B
:1035100003280BD029462046FFF7C6FB3846F8BDE6
:103520004806FBD02046FFF7A1FEF7E7C80904D004
:103530004806400D0519143504E04806400D0519EC
:10354000FF3505352046FFF7F7FD002800D00120A4
:103550002860022229462046FFF7CCFBDEE770B543
:103560000446FF30E130007F0D4603280FD1287953
:1035700001280CD885208000005982682046904799
:10358000E888002806D12046FFF7C2FB02E020466B
:10359000FFF78AFB002070BD7047000000487047AD
:1035A0008006002010B50248FDF75AFD10BD00004E
:1035B000D806002030B47446641E2578641CAB42E3
:1035C00000D21D46635D5B00E31830BC184702E083
:1035D00008C8121F08C1002AFAD17047704700209E
:1035E00001E001C1121F002AFBD1704708B5FDF7A9
:1035F000A7F8FFF7DCF93A484269012149040A4378
:10360000426142690A400092426949000A434261AC
:1036100042690A40009241690122114341614069B7
:1036200010400022009011460A20FDF7D1F80A2030
:10363000FDF7C4F8002211460B20FDF7C9F80B2056
:10364000FDF7BCF8FEF70CFDFEF72AFDFEF74EFD78
:10365000244E40223088810141182348091823480C
:10366000FEF7DCFA224D234F234CA9693960234829
:1036700033880288934212D04031097C00290ED150
:10368000900111181848402209181D48FFF782FAC6
:103690001A480078401C81071848890F0180194892
:1036A000218800888842E0D010486430FEF7B7F9DE
:1036B0000128DAD1010300221348FDF72DF82088F4
:1036C0004022810140181149411808486430FEF732
:1036D00005FC2078401C8007800F2080C5E7000093
:1036E000001002403C00002058030020140100207C
:1036F0005C060020000000203A0000203E00002070
:103700005C0400203800002000040048540200201F
:103710000000000000000000010203040607080981
:10372000403700080000002014010000CE350008DA
:103730005438000814010020E40D0000DE350008B4
:10374000000000000600FF0901A101150026FF008E
:103750007508954009018102954009019102950182
:103760000901B102C0000000040000206901000846
:10377000650100087D010008000000000000000055
:10378000512D0008892D0008952D0008BD2D000839
:10379000E92D0008292D00085D2D00080403090407
:1037A000120100020000004051C20904000201029F
:1037B00003010000312B0008C12A0008C12B0008BA
:1037C00000000000F32A0008892A00089B2A00084C
:1037D000000000000000000000000000192B00089D
:1037E000192B0008192B0008252B000800000000E9
:1037F00009022900010100C032090400000203008F
:103800000000092111010001222100070581034068
:10381000000107050103400001000000092111011A
:103820000001222100000000000000000000000054
:103830000000000000000000000000000000000088
:103840000A06000200000040010000000000000025
:0438500000127A00E8
:04000005080000C12E
:00000001FF
