:020000040000FA
:1000000000170020D5000000EF000000F100000004
:1000100000000000000000000000000000000000E0
:10002000000000000000000000000000F3000000DD
:100030000000000000000000F5000000F7000000D4
:10004000F9000000F9010000F90000004D02000075
:100050008502000000000000F9000000F900000027
:10006000F9000000F9000000F9000000F9000000AC
:10007000F9000000F9000000F9000000F90000009C
:10008000F9000000F9000000F9000000F90000008C
:1000900099020000F9000000F9000000F9000000DA
:1000A000F9000000F900000000000000000000005E
:1000B0000000000000000000000000000000000040
:1000C0000348854600F046F8004800474105000017
:1000D000001700200321094802680A43026008480B
:1000E00002680A4302600748804707480047FEE766
:1000F000FEE7FEE7FEE7FEE7FEE70000240500401E
:1001000054050040ED020000C100000003460B430F
:100110009B0703D009E008C9121F08C0042AFAD2BD
:1001200003E00B780370401C491C521EF9D2704743
:10013000D2B201E00270401C491EFBD2704700227F
:10014000F6E710B513460A4604461946FFF7F0FFD6
:10015000204610BD064C0125064E05E0E36807CC9D
:100160002B430C3C98471034B442F7D3FFF7ACFF55
:1001700084180000A4180000C106C90E01208840A0
:10018000014908607047000080E100E0C106C90E27
:1001900001208840014908607047000000E100E04C
:1001A000C106C90E0120884001490860704700005F
:1001B00000E200E08307FF22DB0E9A408907090E68
:1001C000994000280BDA0007000F08388308084818
:1001D0009B001818C36993430B43C361704783089E
:1001E00004489B001B181868904308431860704728
:1001F00000ED00E000E400E0F8B5114C2068114E7D
:100200000027002803D07068C00700D02760E0688E
:100210000D4D002807D07068000704D5E760E86836
:10022000002800D080472069002807D07068C006E9
:1002300004D52761A868002800D08047F8BD0000D9
:1002400000110040001300402C00002070B5FF2179
:100250000B480931094C00254550214601F008FAA8
:10026000002809D1A07EFF2801D000F0ADFE657600
:1002700025712168201D884770BD0000D40400202E
:100280000030004010B50249024801F00BF910BDE2
:10029000F4040020004000403EB5134C206A029058
:1002A000684600F051FC00281CD1A169002919D032
:1002B0000098C00704D000206A46107101A8884742
:1002C0000098800705D5012069460871A16901A839
:1002D00088470098400705D5022069460871A16942
:1002E00001A888473EBD00002C00002010B500F09A
:1002F00003F9002805D01F491D484860C8131E494E
:1003000088611E48018CC9B201290BD1828C120769
:1003100008D1028D1206120F042A03D1828D120613
:10032000120F0AD0012921D1818C09071ED1018D1C
:100330000906090F0A2904D007E0114A012191603A
:10034000F5E7828D1206120F05D00D290ED1808D92
:100350000006000F0AD10B480168012904D00A49A0
:10036000016001680129FCD1C021416110BD00007C
:10037000DFFF07C000050040006C0040C00F00F028
:100380000006004000EC06407593000002E008C83B
:10039000121F08C1002AFAD170477047002001E0FF
:1003A00001C1121F002AFBD1704710B500F01CF8E4
:1003B00000BA10BDBFF34F8F04490348C860BFF3B4
:1003C0004F8F00BFFDE700000400FA0500ED00E0DC
:1003D0000EB50021029000916A4601910148FFF795
:1003E000E9FF0EBD014000000168094A08091140FB
:1003F000104009010843074A81081040114080005D
:100400000143054A4808114010404900084370471D
:100410000F0F0F0F333333335555555570B5FF203C
:100420000C4C143020600D490B480969C07C88478A
:100430000C490B4848600C48002101610B4B01221C
:100440001A610569002DFCD00161FF201830206081
:100450005A6070BD001200400C0500202C000020E6
:100460004E0E00200015004000110040001000401A
:100470000448002101600121820511600168002902
:10048000FCD07047000100401FB515A00068029025
:1004900014A0006814A1039003C9009001911448AE
:1004A0004021C17401214B220170D200828101726E
:1004B000104A42604170017500F060FB00280DD1C8
:1004C00002A800F01DFC002808D103A800F030FCB1
:1004D000002803D10821684600F042FC04B010BD9A
:1004E000E7E7E7E7C2C2C2C2E7C2C3C4C5C6C7C81E
:1004F00014000020C50A00001048018CC9B201296F
:1005000017D1818C090714D1018D09060A0F03D177
:10051000828D1206120F0ED0090F012903D1828D90
:100520001206120F07D0032903D1808D0006000F99
:1005300001D000207047012070470000C00F00F07C
:100540004C488CB001278763FFF792FF00204A4D8B
:1005500004464026852141434A195470401C6E547C
:100560000428F7D3454844608460C4600461FFF701
:100570008BFF002801D0FFF72BFF00F017FC0028AD
:1005800001D0FFF725FF3E480FC8049301AB07C316
:1005900006206946C8713A483A4A01A9103800F065
:1005A000B3F8394886603949032008603449182275
:1005B000103105A8FFF7AAFD032008903048344AFF
:1005C00005A9083800F0ACF92C4C0096616885202C
:1005D00041434B192A4840222E4908385B1D00F040
:1005E00065F9002020706070A168606888421AD0A8
:1005F0002078002817D100F031FC20480021143069
:10060000417000F0BBFA2770A168852041430022A9
:10061000481942706E54C27000F044FC207A401CAD
:100620008007800FA0602078022808D10020207069
:1006300012481430477000F0A1FA00F0B7FBE168EF
:1006400020698142D0D061780029CDD167708521A1
:10065000484311490F4B4118094840221038491DA1
:10066000009600F0E1F8207C401C8007800F20619C
:10067000BAE70000400000406C00002000000020AD
:1006800034180000E1130000000500501807005066
:100690006114000094040020800200208207D30E21
:1006A000FF229A408907090E10B5994000280BDAFD
:1006B00003071B0F083B9C080C4BA400E318DC69E4
:1006C00094430C43DC6107E08408094BA400E41860
:1006D000236893430B432360C106C90E0120884061
:1006E000044908600449086010BD000000ED00E006
:1006F00000E400E080E200E000E100E0400F0128BB
:1007000000D0002070470000FEB507460C46407937
:10071000414943015E18317E002901D00820FEBD09
:10072000002C02D13D49000144183260207B012594
:100730000128207804D8294681403948C16001E069
:1007400000F042FC2178374A0120890089180860AE
:100750006578FF2D06D03249A840C860284600F0D1
:1007600029FC01E00025ED43A078FF2808D00023F4
:1007700000931A4619460193029000F0F7FB02E03D
:100780000020C0430290E078FF2804D000F01CFC59
:10079000E07800F00FFC7879E17842011E481018EB
:1007A000817639680520000223780818029A836050
:1007B000C5600261A2684262627B237B002A00D08E
:1007C0000122012B04D0022B04D0032B06D103E01D
:1007D000022302E0042300E006231A4342657A79EB
:1007E000637955010C4AAA18D3763268002A04D0DE
:1007F000032304221B02C9184A60012505603068E2
:10080000002804D0042021793856FFF747FF002044
:1008100070763576FEBD0000D40400205C18000020
:1008200000050050000700501FB50091069C029380
:1008300069460A710C73002200F002F804B010BD82
:10084000F8B50C464179174B4901C9184B7E002B6E
:1008500001D01120F8BD0B68002B04D014231A42DC
:1008600001D101234B76E8CC0831E8C14B79FD2555
:100870005B085B002B404B718B781839103CFF2BC9
:1008800003D001259D40084BDD60002A03D00020E5
:1008900048760620F8BD0068224600F0A7FD00203B
:1008A000F8BD0000D404002000050050FFB5064646
:1008B0000F46007918214843184981B044181D4655
:1008C000002B18D0002F16D03846FFF717FF00284E
:1008D00013D02846FFF712FF00280ED0607D0028B5
:1008E0000DD0012818D0022809D0032807D00325ED
:1008F000284605B0F0BD0E20FBE71020F9E7E760C1
:100900002561039820600A98606000250122214635
:10091000306800F0FCFDEBE70825E9E7F40400206F
:10092000F7B507460C46007918214843504986B070
:1009300041180491097D3E68002902D0082009B0C1
:10094000F0BD002C01D14B494418207C032801D96B
:100950000720F4E7089800280DD020680025FF281C
:100960000BD0E17C002300911A460195194600F056
:100970000FFB206803E00E20E1E70020C043029057
:100980006068FF2808D0002300951A461946019593
:1009900000F0FEFA606801E00020C0430095019578
:1009A00003900022A37C1146E06800F0F1FA0023D6
:1009B000009501951A461946A06800F0E9FAE0682A
:1009C000A3688446052000023018039A029900901B
:1009D00083600261C160624642614563856345642C
:1009E0008564607C217C002800D00120012904D08E
:1009F000022904D0032906D103E0022102E00421E8
:100A000000E006210843009948650099207DC865EB
:100A10000B21C901607D71180864FF200530355035
:100A2000FF2029303550F01D0421FF30FA300268D4
:100A30000A4302603979182041430D4809184D7561
:100A40003979182359430818089A826059010A48CD
:100A5000711848600520A17D3856FFF71FFE0498E5
:100A600001210175009902200860002067E700005D
:100A7000F40400206C1800000204000010B50F20E0
:100A80000C49800288600C490020487000F05AFC34
:100A900024210A48FFF753FB084809210A38FFF7C9
:100AA0004EFB1420FFF768FB054903200860002077
:100AB00010BD000000F501402C000020DA0E0020DF
:100AC0000012004070B500780225114C002805D0B6
:100AD000012805D00F4D022801D110E0257070BD0E
:100AE00000F01AF800F0A4F9F8E7E0688521414326
:100AF000695C002903D0401C8007800FE060E0683B
:100B000085214843401900F0BFF80028EDD070BDA2
:100B1000000000208002002010B50948007800285D
:100B20000CD00120FFF728FB0648002181620162FA
:100B300041620120FFF72AFB002010BD082010BDF4
:100B40002C0000204C09002070B50B4D044628787D
:100B500000280DD0002C0DD00120FFF70DFB686898
:100B60002060002068600120FFF710FB002070BDAE
:100B7000082070BD0E2070BD2C00002070B505004F
:100B800067D0354C2078002803D0FFF777FF002886
:100B90005ED16868A061182229463048FFF7B6FA8E
:100BA0000025656024212E48FFF7C9FA2C48092149
:100BB0000A38FFF7C4FA00F0BDFD00F0C3FB274977
:100BC0000020284A18318523434386005B18401CC7
:100BD00093510828F7DB23490020234A2C31852331
:100BE000434386005B18401C93510828F7DB1F48DD
:100BF0000421016185601F491D4808601F481E4986
:100C000001621F4941621C49091D81621C49091D7D
:100C1000C1621849C03901631749F0394163154968
:100C2000BC3981631749C1630C4E707C8107890F01
:100C30000120FFF7BFFAB07C8107890F1420FFF76E
:100C4000B9FA1420FFF7A2FA657001202070002085
:100C500070BD0E2070BD00002C0000200C0500208F
:100C6000DA0E00204C090020A00D002000A5004055
:100C70000202000000A200400011004040F50140C7
:100C800000A000400010004070B505461A480078EA
:100C900000282AD0002D2AD0184CA06A002828D07D
:100CA0000120FFF769FA606A800021580A782A70EB
:100CB00021584978697021588978A9702158097993
:100CC00029712158681D491DFFF720FA606A401CF0
:100CD0006062082801D300206062A06A401EA06202
:100CE0000120FFF753FA002070BD082070BD0E20D0
:100CF00070BD052070BD00002C000020A00D00205C
:100D000010B50A494978002901D0112010BD0028EA
:100D10000AD00146054804222830FFF7F7F90120E0
:100D200000F0E6FC002010BD0E2010BD2C000020BD
:100D300010B50A494978002901D0112010BD0028BA
:100D40000AD00146054804222C30FFF7DFF90220C3
:100D500000F0CEFC002010BD0E2010BD2C000020A5
:100D600010B50C4610494978002901D0112010BD5A
:100D7000002803D0092C03D3072010BD0E2010BD7E
:100D80000146094822463030FFF7C0F906480821DD
:100D900028300A1BFF210474D1408174042000F024
:100DA000A7FC002010BD00002C00002070B51748E3
:100DB0004178002901D0112070BD00221449D2438E
:100DC0008A60144D00242C61134A8260FF22134B69
:100DD00018321A6010224A60042141700B491048F1
:100DE00028318A7C0263C97C81600E4941600126FA
:100DF0000D49022008603046FFF7C8F96C60AC600E
:100E00002C610A484660002070BD00002C000020C4
:100E10000013004000110040E50F000000120040E8
:100E2000001500404E0E002080E200E0001000405F
:100E300010B508484078002801D0112010BD0648A0
:100E4000806A002803D000F08FFB002010BDFF2037
:100E5000013010BD2C0000204C09002010B50C49B9
:100E60004878042802D0FF20023010BD094A002033
:100E70001060094B421E9A60084A88601061084C55
:100E8000012323611369002BFCD04870002010BDA2
:100E90002C00002000120040001300400011004010
:100EA00000100040F8B52D4F0646387800280BD0CA
:100EB000002E0BD0307800280DD080280BD8284D7C
:100EC0002978002904D008E00820F8BD0E20F8BDDC
:100ED000E97C884201D90920F8BD224CA06A082883
:100EE00001D30420F8BD6878002805D1F0780028E7
:100EF00002D0287D002824D00120FFF73DF9206A88
:100F00008522800020583146FFF700F97278164894
:100F1000815C491C8907890F8154206A8200A2588C
:100F2000401C11712062082801D300202062A06AB1
:100F3000401CA0620120FFF729F96878002802D040
:100F400009E00620F8BD287C002804D17878002824
:100F500001D100F009FB0020F8BD00002C000020AA
:100F60000C0500204C090020D00E002030B55200A6
:100F70000A439900039C0A432102049D0A43290461
:100F80000A43024980004018026030BD000700504B
:100F900030B552000A439900039C0A432102049D84
:100FA0000A4329040A43024980004018026030BD08
:100FB000000700501CB5002100910B460122019151
:100FC0001146FFF7D3FF1CBD01218140014881601C
:100FD00070470000000500504058002800D0012054
:100FE00070470000F8B54D4900200A680127002A23
:100FF00003D04B4A926A082A02D3FFF70FFAF8BDD2
:101000008A68484B9200CC68D6188C3B5A78358851
:101010005208AC4204D1B478A24201D10120002789
:101020003E49B270C96831803F49404C0A7D002A70
:1010300007D03C4A8C3A5278D20702D0FFF7EEF93B
:1010400052E0FF223A4B1C321A600A783749344D7D
:1010500009692C35002A59D0012A3CD1354A936AB6
:101060009E46002B2ED0526A94469300314AD258A5
:1010700053782A4A9268934224D1F2780123002AB5
:101080000FD000280DD162462A48521C4262082A1D
:1010900001D3002242627246521E82626068184387
:1010A00060602448F370426A920080586061007862
:1010B00088476169087828700A78A81C491DFFF7DD
:1010C00025F804E00020F0708847002028701548BB
:1010D0008C38407868700520607010488168164828
:1010E000C16245601548A060002F88D00B48B178D8
:1010F0008068C0B200F034F9002880D06068042114
:10110000084360601420FFF74BF8F8BD00208847C3
:1011100004488C38007828700020DBE70014004079
:10112000A00D0020DA0E00200C0500202C0000206D
:10113000001200404C090020001500404111000041
:1011400010B5FF20074918300860084C064821698F
:10115000C07C88470749064848600748A0600420CB
:10116000607010BD001200400C0500202C00002013
:101170004E0E002000150040E50F000010B5FF20C6
:10118000134914300860134C616A13480160134915
:101190008A89823A4260124A0120D060114A0020B6
:1011A000106050600723104A9B02536053149360F1
:1011B0000E4AD0600878002801D1216988470D497E
:1011C0000B4848600C48A0600320607010BD000010
:1011D000001200402C00002040A500400C0500201B
:1011E00000A0004040A1004000F501400011004077
:1011F0004E0E0020001500403512000010B50B4CBB
:10120000606801210843606000F05AFA0848806A6B
:10121000002805D01420FEF7C3FF00F0A5F910BD8B
:10122000002060701420FEF7BBFF10BD2C000020D2
:101230004C090020F8B50720354F8002B8603548CA
:10124000C2683549354EC889354C0125002A36D04B
:10125000344A1268002A32D075606A03BA60626844
:101260002A4362600E46E169401A401C206200F089
:1012700027FA307800280FD02B48007800280BD0B0
:101280002A48C06A0021C0B200F06AF8002803D0E2
:1012900060680421084360602548806A002808D0FF
:1012A000307C012805D01420FEF77AFF00F05CF9AD
:1012B000F8BD002060701420FEF772FFF8BDE169F0
:1012C0004A1EE2610AD2756001214903B960401CDF
:1012D00020626068022108436060EAE7FF20154948
:1012E0001C30086060692169007888470E490F4802
:1012F000823941601048A0600220607035600003B0
:1013000078600E4840680028D8D00D480560F8BDC8
:1013100000F50140001100400C05002000A0004035
:101320002C000020001400404E0E0020001500404C
:101330004C090020001200407D11000040A1004037
:101340000010004004490020086248628862034996
:1013500008624862886270474C090020A00D002096
:10136000F8B51C4C0746A06A0E46082830D21A4A27
:101370002046006A13782146AE3100258000012BFB
:1013800004D05378002B07D0D27C02E00A78802A60
:101390001ED823581A7001E0225815702058891C55
:1013A0000278401DFEF7B2FE206A81006258577035
:1013B0000A4A92686358401C9A70615808280E7156
:1013C000206200D32562A06A401CA0620120F8BD03
:1013D0000020F8BDA00D00200C05002040150040A5
:1013E000014900204870704700000020F8B5002730
:1013F0000E460F7704460321042009026118886015
:10140000FF25093567511079002802D0106800784F
:1014100000E0F07E05231B02E318D8611079012853
:1014200002D91068407803E0107B012801D9F07ED2
:10143000D8613068002802D004204860F8BD6059A7
:101440000028FCD067513146204600F011F90028F1
:10145000F5D1B07EFF28F1D0FFF7B6FDF8BD000052
:1014600007B582B06846007A012811D109494022A7
:101470000879401C8007800F486040210091852139
:10148000484305494318054905485B1DFFF70EFA17
:1014900005B000BD000000206C0000209404002076
:1014A0002C180000F8B5FF270D46293704463946A9
:1014B000FFF792FD0026002817D0E651687D01282D
:1014C00013D1E9682868C2B20520000220184164DF
:1014D00082642A6969684263C9B281630120A0629B
:1014E00002222946204600F012F8FF270537394628
:1014F0002046FFF771FD002808D0E651687D0228DC
:1015000004D103222946204600F001F8F8BD10B5A9
:101510004A7500F001F810BD3EB54A7D0C46012128
:10152000012A16D0022A16D0032A11D16A46117058
:10153000052109024018C16CC9B20191C06BC0B24B
:101540000290A06800280BD06D4607CDA36898478D
:101550003EBD41623EBD0020694608700190EFE744
:101560000020FEF735FFEFE7F8B5354C0125256281
:101570003448354E416A890041586161C878002875
:1015800009D0307D002806D000273078002804D00C
:10159000012839D110E00127F7E708782169884749
:1015A00061692A480A790270002242700A78801C18
:1015B000491DFEF7ABFD0FE024480A7802700A7956
:1015C0003B4652006B401A4342700A78801C491D0A
:1015D000FEF79CFD002F0DD0FF201D491C30086038
:1015E0001C4911204860F089E0611B48A06002207E
:1015F000607009E0FF211648143101601548102180
:1016000041601648A0606570616915484A78C262F9
:101610004A7829469140016309492831C97C816093
:101620000A4941600F49022008600120FEF7AEFD23
:101630000D4900204860886008610C480560F8BDCD
:101640002C0000204C0900200C050020CC0D0020AF
:1016500000120040001300407D110000FD11000049
:101660000015004080E200E0001100400010004042
:1016700038B505221202831898696A461070087FEF
:101680000A7D904203D26A4612780C692254087F80
:10169000401CC2B20A770C7B501C844202D9896874
:1016A000085C03E00D7D854202D9C87ED86103E065
:1016B000A24201D3AA4201D2012038BD002038BD88
:1016C00010B50A4CA06A00280FD00120FEF754FD87
:1016D000A06A401EA062606A401C6062082801D3B4
:1016E000002060620120FEF751FD10BD4C09002072
:1016F00070B504460D4DC00703D00D48FEF755FEEA
:10170000E861A00704D50A48001DFEF74EFE2862D6
:10171000600709D506480830FEF766FE686204488F
:101720000C30FEF761FEA86270BD0000001500409D
:101730005400002010B500F041F8194919480B7AFF
:1017400003614024184A002B0BD0012B04D0022B3C
:1017500004D0032B06D104E0302300E0FA235362C7
:1017600000E054620B78002B03D0012B03D10F4B08
:1017700000E00F4B13614B7A4363022B02D0012B25
:1017800004D008E00B4BC3630B4B03E0FF23C363A0
:10179000FF2308338363C87C1169884710BD0000AC
:1017A0000C050020001500402C000020FD17000053
:1017B000D1170000FFFF000021100100024803497B
:1017C000807AC860704700000C05002000150040BA
:1017D0000849074A4A61084A0302527C521E120411
:1017E0001A4302430120000602438A617047000049
:1017F0000001010000150040540000200648054982
:1018000041610649064A497C491E09041143816128
:10181000704700000800030000150040540000203D
:101820008000000100300040030001000040004043
:1018300000040000050407FF03FF00000000004053
:101840000000000000000000010000000200000095
:10185000FF00000000000000FFFF0300050407FF79
:1018600003FF000000000040000000000000000036
:101870000100000002000000FF0000000000000066
:10188000FFFF0300A4180000000000206C0000000F
:101890008C030000101900006C000020941600005A
:1018A0009C03000000000000000000000000000099
:1018B0000000000000000000010000000000000027
:1018C00001020000FA0003000001022000000000F5
:1018D0000000000000000000000000000000000008
:1018E00000000000000000000000000000000000F8
:1018F0000000000000000000E7E7E7E7C2C2C2C244
:10190000E7C2C3C4C5C6C7C80805FF020024F40067
:04000005000000C136
:00000001FF
